M000000000001PELICAN BAY FOUNDATION INC                                                                                                                                                                      ACONDO          123 Main St                                                                         NAPLES                      FL34108     US                                                                                                                                                                                                                                                                                                                                                                                                                                                                                                                                                                                                                                                                                                                                                                                                                                                                                                                                                                                                                                                                                                                                     
M000000000002FIDDLERS CREEK COMMUNITY ASSOCIATION INC                                                                                                                                                        ACONDO          123 Main St                                                                         NAPLES                      FL34114     US                                                                                                                                                                                                                                                                                                                                                                                                                                                                                                                                                                                                                                                                                                                                                                                                                                                                                                                                                                                                                                                                                                                                     
M000000000003BONITA BAY CLUB INC                                                                                                                                                                             ACONDO          123 Main St                                                                         BONITA SPRINGS              FL34134     US                                                                                                                                                                                                                                                                                                                                                                                                                                                                                                                                                                                                                                                                                                                                                                                                                                                                                                                                                                                                                                                                                                                                     
M000000000004THE BROOKS COMMUNITY ASSOCIATION INC                                                                                                                                                            ACONDO          123 Main St                                                                         BONITA SPRINGS              FL34135     US                                                                                                                                                                                                                                                                                                                                                                                                                                                                                                                                                                                                                                                                                                                                                                                                                                                                                                                                                                                                                                                                                                                                     
M000000000005MIROMAR LAKES COMMUNITY ASSOCIATION INC                                                                                                                                                         ACONDO          123 Main St                                                                         ESTERO                      FL33913     US                                                                                                                                                                                                                                                                                                                                                                                                                                                                                                                                                                                                                                                                                                                                                                                                                                                                                                                                                                                                                                                                                                                                     
